:020000040800F2
:10000000B0040020C5010008A10300089D030008FA
:100010009F030008C5020008350600080000000024
:10002000000000000000000000000000A503000820
:10003000C702000800000000A3030008A70300088F
:10004000DF010008DF010008DF010008DF01000810
:10005000DF010008DF010008DF010008DF01000800
:10006000DF010008DF010008DF010008DF010008F0
:10007000DF010008DF010008DF010008DF010008E0
:10008000DF010008DF010008DF010008DF010008D0
:10009000DF010008DF010008DF010008DF010008C0
:1000A000DF010008DF010008DF010008DF010008B0
:1000B000DF010008DF010008DF010008DF010008A0
:1000C000DF010008DF010008DF010008DF01000890
:1000D000DF010008E1050008DF010008DF0100087A
:1000E000DF010008DF010008DF010008DF01000870
:1000F000E5040008DF010008DF010008DF01000857
:10010000DF010008DF010008DF010008DF0100084F
:1001100085050008DF010008DF010008DF01000895
:10012000DF010008DF010008DF010008DF0100082F
:10013000DF010008DF010008DF010008DF0100081F
:10014000DF010008DF010008DF010008DF0100080F
:10015000DF010008DF010008DF010008DF010008FF
:10016000DF010008DF010008DF010008DF010008EF
:10017000DF010008DF010008DF01000800000000C7
:10018000DF010008DF010008DF010008DF010008CF
:10019000DF010008DF010008DF01000800000000A7
:1001A000DF010008DF010008DF010008DFF810D0E0
:1001B00000F030F8004800479D0B0008AFF30080C6
:1001C000B00400200648804706480047FEE7FEE7E7
:1001D000FEE7FEE7FEE7FEE7FEE7FEE7FEE7FEE7F7
:1001E000AD030008AD01000830B50B460146002004
:1001F0002022012409E021FA02F59D4205D303FAE9
:1002000002F5491B04FA02F52844151EA2F1010269
:10021000F1DC30BD064C074D06E0E06840F001031C
:1002200094E8070098471034AC42F6D3FFF7C2FFBA
:100230002C2100084C21000890ED070AD0ED080A97
:1002400030EE600A80ED0A0AD0ED091AF0EEC00A1D
:1002500090ED0B1AF4EEE10AF1EE10FA38BFDFED83
:10026000180A0DD3D0ED040AD0ED051A90ED0C2A32
:1002700060EE800A41EEC10AD0ED061A41EE820A14
:10028000C0ED0D0AD0ED0E0AD0ED0D1A70EEA10AE8
:10029000C0ED0E0A80ED0C1A80ED0B0A90ED0F0AEE
:1002A000F4EEC00AF1EE10FA07DC90ED100AF4EE5D
:1002B000C00AF1EE10FA28BF704780ED0E0A7047B1
:1002C00000000000FEE77047F0B48278C3781204A3
:1002D00042EA03220379C67B42EA03054279837925
:1002E000120442EA032200EE105AC379877C42EAE4
:1002F0000304F8EE400A00EE104A027A437AB8EEA0
:10030000401A120442EA0322837A80EE810A42EA0A
:10031000030C9FED211AC27A037B120442EA0322E6
:10032000437B1343827B120442EA0622067C32435B
:1003300060EE010A00EE10CA467CC07CF8EE401A5E
:1003400000EE103A360446EA0726B8EE402A30435B
:10035000C1ED000A81EE820AB5EE002A60EE021AB3
:1003600000EE102AC1ED011AF8EE402A00EE100A44
:1003700061EEA00AB8EE403A82EE830A20EE020A4D
:1003800020EE010A81ED020A80EE201AC1ED030A77
:1003900081ED041AF0BC7047EC51383EFEE7FEE7F1
:1003A00070477047704700F0CFBA0000444818B457
:1003B000016841F4700101604249086840F00100A1
:1003C00008604148026842F08002026000244CF25A
:1003D00050320094009B5B1C00939342FAD3036855
:1003E00043F0900303600094009B5B1C00939342D6
:1003F000FAD3026822F0030202600A6822F4102293
:1004000022F080720A600A6822F480220A60046086
:100410000268DFF8BCC02D4ACCF800202D4A1460D9
:100420000B68002243F480330B604FF6FF740B68B7
:10043000521C13F4003F01D1A242F8D10A6812F411
:10044000003F3CD0244A136843F080531360234A92
:10045000136843F44043136003680360036843F484
:1004600000430360036843F4A05303601C4BCCF8C3
:1004700000300B6843F080730B600B6813F0007F53
:10048000FBD0116841F480311160516811F4803F54
:10049000FBD0116841F400311160516811F4003F44
:1004A000FBD0016821F003010160016841F0020105
:1004B0000160016811F0080FFBD018BC7047FEE71F
:1004C00088ED00E000380240083802401030002477
:1004D000043802400C3802404038024000700040AE
:1004E0001978400A10B51F4C0121204601F038FA56
:1004F000012818BF10BD0121204601F02EFA10215D
:10050000194800F0DDFA19480078012825D1184C67
:100510001848B2EE080A84ED070A0068DFED160AF3
:1005200000EE100A1648B8EE400A20EE200ADFED71
:10053000130A20EE200AF3EE040A20EE200A84EDCE
:10054000080AC1682046884794ED0E0ABCEEC00A2E
:1005500010EE100A80B200F00BFFBDE8104000F072
:10056000BDBC000000040140001002400800002053
:1005700024000020680000203333534000008039FD
:100580000C00002070B5124D1049284601F002FC05
:10059000104C01281CBFE078002807D1284601F044
:1005A00063FB0D4A61785054481C60700B49284623
:1005B00001F0F0FB012818BF70BD284601F054FB84
:1005C0000120E0700020607070BD00000503050090
:1005D000004C00401C000020940000200403040094
:1005E00070B5104D0E49284601F0D4FB0E4C012881
:1005F00007D1284601F038FB0C4A21785054481C9A
:1006000020700B49284601F0C5FB012818BF70BDBA
:10061000284601F029FB0120A0700020207070BD49
:1006200005030500001001401C0000208000002090
:1006300004030400FEE700000FB4054B10B503A946
:10064000044A029800F018F810BC5DF814FB000092
:100650008D0900082000002002E008C8121F08C110
:10066000002AFAD170477047002001E001C1121F33
:10067000002AFBD1704700002DE9FF4F8BB09A464E
:100680000F460546002606E025280BD052460D9958
:1006900090476D1C761C28780028F5D10FB03046A5
:1006A000BDE8F08F0024A0460122604900E0044329
:1006B00015F8013F203B02FA03F00842F7D12878F1
:1006C0002E2817D115F8010F44F004042A280ED063
:1006D0006FF02F022878A0F1300109290AD808EB21
:1006E000880102EB410100EB01086D1CF2E757F8AD
:1006F000048B6D1C287869283ED006DC0028CDD0FC
:1007000063280BD0642804D136E0732810D07528F4
:100710004BD052460D999047761C85E017F8040B94
:100720008DF8000000208DF80100E946012003E06B
:1007300057F8049B4FF0FF3061074FF0000401D4DD
:100740000AE0641C44450DDA8442FADB19F804100F
:100750000029F6D106E0641C8442FCDB19F8041081
:100760000029F8D1264404E019F8010B52460D99EE
:100770009047641EF8D257E001CF4FF00A0B0028D3
:1007800002DA40422D2102E0210504D52B218DF80B
:100790002410012103E0E10705D02021F7E70DF146
:1007A000200908910CE00021F9E701CF4FF00A0B76
:1007B000F9E75946FFF718FD01F1300209F8012D5C
:1007C0000028F6D1ADEB090000F1200B600701D441
:1007D0004FF00108D84502DDA8EB0B0000E0002037
:1007E0008046002406E009A85246005D0D99904716
:1007F000641C761C08988442F5DB04E030205246E5
:100800000D999047761CB8F10001A8F10108F5DCBC
:1008100005E019F8010B52460D999047761CBBF183
:100820000001ABF1010BF4DC6D1C34E70928010079
:10083000F6EE000A9FED352AB0EE601A10EE101A9F
:1008400000EE021A50EE020A2F4A20EE022ADFEDD5
:10085000301A3048BDEEC11AFDEEE00A914211DABD
:10086000B5EEC02AF1EE10FAACBF11EE101A10EE80
:10087000901A50F8210000EE100AB8EEC00A20EEDF
:10088000210A704710EE101A234A91420BDAB5EE96
:10089000C02AF1EE10FAACBF11EE101A10EE901A49
:1008A000C1F5C771E5E710EE101A1C4A9FED1C0A4E
:1008B000914215DAB5EEC02AF1EE10FAACBF11EE96
:1008C000101A10EE901A00EB8100A0F58050D0F8BD
:1008D000C80900EE900AF8EEE00A20EE800A7047A0
:1008E000B5EEC02AF1EE10FAACBF11EE101A10EE00
:1008F000901AC1F5477150F8210000EE900AF8EE09
:10090000E00A20EE800A7047DB0FC93FE65FFD4238
:1009100017B7D1380C1E0008DB0F4940E4CB9640D6
:1009200017B7D1B8014601A0FFF786BE62656570B2
:10093000202564FFFFFF00000249086008680028C6
:10094000FCD170470000002004480168002908BF5E
:1009500070470168491E01607047000000000020D8
:1009600010B540F6044000F023FC074C742302222B
:100970000121204600F0ACF8204674230222BDE895
:100980001040002100F0CEB80010024070B5074DB5
:100990000446C1B2284601F06BF90721284601F050
:1009A000E2F90028F9D0204670BD00000010014097
:1009B0002DE9F00F036AD0F824C012F0010F1CBF1C
:1009C00023F00F030B4312F0020F4FEA011A1CBF72
:1009D00023F0F0034AEA030312F0040F4FEA01295F
:1009E0001CBF23F4706349EA030312F0080F4FEAB7
:1009F00001381CBF23F4704348EA030312F0100FC0
:100A00004FEA01471CBF23F470233B4312F0200F31
:100A10004FEA01561CBF23F47003334312F0400F1A
:100A20004FEA01651CBF23F070632B4312F0800F67
:100A30004FEA01741CBF23F07043234312F4807FFC
:100A40001CBF2CF00F0C41EA0C0C12F4007F1CBFF1
:100A50002CF0F0014AEA010C12F4806F1CBF2CF458
:100A6000706149EA010C12F4006F1CBF2CF4704154
:100A700048EA010C12F4805F1CBF2CF4702147EA95
:100A8000010C12F4005F1CBF2CF4700146EA010C4B
:100A900012F4804F1CBF2CF0706145EA010C12F477
:100AA000004F1CBF2CF0704144EA010C0362C0F8F7
:100AB00024C0BDE8F00F70478162704781617047C4
:100AC000C1627047002A14BF8161816270470000D3
:100AD0002DE9F00F0568C6684FF0000C10244FF0A8
:100AE000010A4FF0030800BF0AFA0CF71F420ED0AC
:100AF0004FEA4C0708FA07F901FA07FB25EA09054E
:100B000026EA090602FA07F74BEA05053E43641E8A
:100B100024040CF1010C240CE6D10560C660BDE88C
:100B2000F00F70472DE9F001012941680CBF19430E
:100B300099434160D0F808C0002110240126032702
:100B400006FA01F51D4208D04D0007FA05F82CEA17
:100B5000080C02FA05F545EA0C0C491C641E240435
:100B6000240CEDD1C0F808C0BDE8F00170470000CA
:100B700010B540F6034000F01BFB074C8023002219
:100B800001212046FFF7A4FF204680230222BDE872
:100B900010400021FFF7C6BF000C02402DED048B72
:100BA0008AB04FF4A06000F013F900F0C3FBFFF728
:100BB000DFFF012280214248FFF784FF4FF4E1303C
:100BC00000F0A4FF4FF4965000F042FFFFF7C8FE7C
:100BD0004FF4167000F0CCFB00F0EAF941F27072AD
:100BE0000021384800F0B2FD00246420FFF79AFE8F
:100BF000C820FFF7A1FE601CC4B2032CF5D3324C11
:100C0000324DDFF8CC90DFF8CC80334F9FED338A44
:100C1000DFED338A0026B3EE049A2078012818D13C
:100C2000267002A92F48FFF74FFB9DED030A2EA067
:100C300000F06AFB9DED020A2DA000F065FB9DED22
:100C4000040A2DA000F060FB9DED060A2CA000F028
:100C500045FB287801281BD12E702D49684600F0ED
:100C6000D9FADDE90001C0B2042811D100EE101A52
:100C700010EE101AB1F17E5F1CD0B5EEC00AF1EE95
:100C800010FA05D104214846FFF716FF88F80060E6
:100C9000386800EE100A16A0B8EE400A20EE080AE6
:100CA00020EE280A20EE090A00F02EFB6420FFF750
:100CB00043FEB2E704214846FFF700FFE8E70000E3
:100CC000000C0240000401401F0000201E00002014
:100CD0000010024008000020680000203333534019
:100CE000000080399400002063757272656E740094
:100CF000766F6C7461676500706F776572000000D5
:100D0000706F7765725F666163746F7200000000D8
:100D10008000002070B42C4C4FF0000C6346256816
:100D2000660D36EA050508BF04232FD0D4F800C0AD
:100D30000CF4E06CBCF5C06F04BF4FF0010C032352
:100D400024D0D4F800C00CF4E06CBCF5A06F04BF54
:100D50004FF0020C634619D0D4F800C00CF4E06CDC
:100D6000BCF5806F04BF4FF0030C01230ED0D4F804
:100D700000C00CF4E06CBCF5407F08BF4FF0040CE1
:100D800004D0124B23604FF0020C6346CCF1040CEC
:100D900001FA0CF1C3F104034FF00F0C2CFA03F32A
:100DA0001A40114300F1E022090182F8001400F01A
:100DB0001F01012202FA01F14009800000F1E02048
:100DC000C0F8001170BC70470CED00E00005FA059A
:100DD000034940F0FD7040F08060086070470000FB
:100DE0000CED00E09FED060A80ED0A0A80ED0B0A8B
:100DF00080ED0C0A80ED0D0A80ED0E0A70470000B0
:100E000000000000D0ED000AB7EE000AF5EEC00ABF
:100E1000F1EE10FA98BF80ED000AD0ED020AF5EE6F
:100E2000C00AF1EE10FA04BFDFED180AC0ED020AA5
:100E3000D0ED090AF5EEC00AF1EE10FAD8BFDFEDE9
:100E4000140AC0ED090AD0ED000AD0ED021A90EDA7
:100E5000032A80EEA11AC2EE201A31EE001A71EEBA
:100E6000212A90ED011A62EE812AC0ED042AF0EEEB
:100E7000002A01EEA20A20EE010A80ED050A21EE09
:100E8000020A80EE201A80ED061A70479EC97F7F05
:100E9000000000009FED100A80ED040A80ED050AB5
:100EA00080ED060A80ED0A0A80ED0B0A80ED0C0A3F
:100EB00080ED000A80ED010A80ED020A80ED030A50
:100EC00080ED090A80ED0D0A80ED0E0A80ED0F0A13
:100ED00080ED100A704700000000000070B52E4C35
:100EE0002E48314E314D2DED028B61889FED2C8ABD
:100EF000DFED2C8A64294FF080011DD2FFF7DCFD65
:100F0000608800EE100AB8EE400AC0EE080A20EE33
:100F1000A80AFFF78DFC3068002100EE900AF8EE79
:100F2000600A20EE200ABCEEC00A10EE100A82B25F
:100F3000284600F00BFC24E0FFF7C0FD608800EEBF
:100F4000100AB8EE400AC0EE080A20EEA80AFFF721
:100F50006FFCF7EE000A306870EE200A00EE100A0F
:100F600000212846B8EE400A20EE800ABCEEC00AF6
:100F700010EE102A00F0EAFB00221146284600F08D
:100F8000E5FB6088401C80B26080642804BF0020BC
:100F90006080BDEC028B70BD08000020000802409C
:100FA00000004843DB0FC9402C040140000401400D
:100FB00070B588B041F2011000F0FAF840F6024036
:100FC00000F0F6F83B4C4023002202212046FFF7B8
:100FD0007FFDC023022200212046FFF7A3FD40220F
:100FE00003212046FFF7E4FC802300220121204654
:100FF000FFF76EFD41F2011000F0DAF8684600F0EC
:101000001CFD2D4E304600F0D9FB002442F6DF6077
:10101000ADF80040ADF8044002900125ADF8024063
:10102000ADF806408DF80C506946304600F09EFC45
:10103000ADF81440ADF8105004AA0021304600F07D
:1010400067FA04AA0121304600F062FA0022114634
:10105000304600F07BFB70220021304600F04EFB52
:1010600000221146304600F081FB0022012130466B
:1010700000F06CFB70220121304600F03FFB0022A3
:101080000121304600F072FB0121304600F0CCFC1B
:10109000304600F037FA002211462C20FFF73AFEC6
:1010A0000121304600F0BCFC304600F051FC08B095
:1010B00070BD00000008024000040140F0B4044686
:1010C00088B000200FF2C80C9CE80E108DE80E10BE
:1010D00030A2D2E90012CDE904122EA2D2E9001208
:1010E000CDE906122E4A1168C1F381032D493BB1A7
:1010F000DFF8B4C0012B08BF614601D0022B2ED00F
:101100001368D2F800C0C3F303131DF8033021FAAB
:1011100003F3CCF3822C04AD126815F80CC023FA4B
:101120000CFCC2F3423206ADAA5C23FA02F2002C98
:1011300001BF084608B0F0BC7047012C01BF18463B
:1011400008B0F0BC7047022C01BF604608B0F0BC8C
:101150007047032C08BF104608B0F0BC7047134B13
:101160001D6805F03F071D68C5F388161D681B68DC
:10117000C5F301456D1C6D0003F48003B3F5800FCA
:1011800008BF6146B1FBF7F17143B1FBF5F1B7E779
:101190000000000000000000010203040607080927
:1011A000083802400024F40040787D0104380240F1
:1011B000810901F1804101F50C31D1F8002800F0DE
:1011C0001F00012303FA00F01043C1F80008704724
:1011D000810901F1804101F50C31D1F8002800F0BE
:1011E0001F00012303FA00F022EA0000C1F8000802
:1011F0007047810901F1804101F50C31D1F80028D7
:1012000000F01F00012303FA00F01043C1F80008AA
:101210007047000010B491F801C08B78BCF1040F46
:1012200020D04C79DFED2A0A43EA04630C79C978AF
:10123000240444EA01211943BCF1000F1ED0BCF183
:10124000010F25D0BCF1020F2CD0BCF1030F33D01D
:10125000FF219FED200A61F30702026080ED010A81
:1012600010BC704700EE103A042161F30702B8EE9B
:10127000400A026080ED010A10BC704700EE101AAF
:10128000002363F30702B8EE401A81EE200AE4E778
:1012900000EE101A012363F30702B8EE401A81EE44
:1012A000200ADAE700EE101A022363F30702B8EE11
:1012B000401A81EE200AD0E700EE101A9FED061AC0
:1012C0000323F8EE400A63F3070280EE810AC4E7C5
:1012D0000000C8420000000000007A44DFED050A6B
:1012E00020EE200A014604A0BDEEC00A10EE102A2E
:1012F000FFF7A2B900007A4425732E76616C3D2574
:1013000064FFFFFF00000000DFED050A20EE200A69
:10131000014604A0BDEEC00A10EE102AFFF78CB9FA
:101320000000C84225732E76616C3D2564FFFFFFE7
:10133000000000000C484FF47A710068B0FBF1F037
:10134000411EB1F1807F0DD24FF0E020416107498D
:10135000F02281F8142D002282610723036181F8B5
:10136000142D7047FEE70000040000200FE000E0AD
:1013700070B54FF08044E16A00EE101AB8EE400AF2
:10138000DFED5E0A20EE200ABCEEC00A10EE101A55
:1013900089B29FED5B0A8142E16A01EE101AB8EE54
:1013A000411A13D821EE201ABCEEC11A11EE101A00
:1013B000421AE16A01EE101AB8EE411A21EE001A43
:1013C000BCEEC11A11EE101A114405E021EE001A0C
:1013D000BCEEC11A11EE101A8DB2E16A01EE101ABC
:1013E000B8EE411A21EE201ABCEEC11A11EE101A05
:1013F00089B281420BD8E06A01EE100AB8EE411AB8
:1014000021EE201ABCEEC11A11EE100A80B2E16A78
:1014100001EE101AB8EE411A21EE201ABCEEC11AE4
:1014200011EE101A89B2A9420BD2E16A01EE101A2C
:10143000B8EE411A21EE201ABCEEC11A11EE101AB4
:101440008DB2E16A01EE101AB8EE411A21EE001ACF
:10145000BCEEC11A11EE101A89B2A9420BD9E16A89
:1014600001EE101AB8EE411A21EE001ABCEEC11AB4
:1014700011EE101A8DB2E16A01EE101AB8EE411A9F
:1014800021EE201ABCEEC11A11EE101A89B2814267
:101490000BD2E06A01EE100AB8EE411A61EE200AA2
:1014A000FCEEE00A10EE900A80B2E16A00EE901ABB
:1014B000F8EE600A60EE800AFCEEE00A10EE901A88
:1014C00089B281420BD9E06A00EE900AF8EE600A18
:1014D00020EE800ABCEEC00A10EE100A80B2E16A6B
:1014E0000A1A00214FF0804000F030F9E06A012133
:1014F000421BBDE87040880700F028B96666663F69
:10150000CDCCCC3D016841F0800101607047000006
:1015100010B4784BDFF8E0C169B301296AD0022921
:101520007ED003291CBF10BC7047016A21F4805192
:101530000162C16921F44071C161016A148841EA04
:1015400004310162016A21F400510162016A948848
:1015500041EA0431016298421EBF604510BC7047E9
:10156000416821F4804141604168128941EA821159
:10157000416010BC7047016A21F00101016281697C
:1015800021F003018161016A148841EA04010162CA
:10159000016A21F002010162016A948841EA0401B2
:1015A000016298421EBF604510BC7047016A21F07D
:1015B00004010162016A538841EA03010162016A80
:1015C00021F008010162016AD38841EA0301016246
:1015D000416821F4807141604168138941EA030147
:1015E0004160416821F4007141604168528941EADB
:1015F0000201BDE7016A21F010010162816921F455
:1016000040718161016A148841EA04110162016A32
:1016100021F020010162016A948841EA041100E08E
:1016200029E0016298421EBF604510BC7047016A04
:1016300021F040010162016A538841EA031101620D
:10164000016A21F080010162016AD38841EA031135
:101650000162416821F4806141604168138941EA77
:1016600083014160416821F4006141604168528911
:1016700041EA82017CE7016A21F480710162C1695B
:1016800021F00301C161016A148841EA0421016269
:10169000016A21F400710162016A948841EA04211F
:1016A000016298421EBF604510BC7047016A21F478
:1016B00080610162016A538841EA03210162016A83
:1016C00021F400610162016AD38841EA03210162C9
:1016D000416821F4805141604168138941EA031156
:1016E0004160416821F4005141604168528941EAFA
:1016F00002113DE7000001400004014079B10129D9
:1017000014D002291BD0032918BF7047C16921F4E6
:10171000E041C161C16941EA0221C161704781694B
:1017200021F0700181618169114306E0816921F432
:10173000E0418161816941EA022181617047C169AB
:1017400021F07001C161C1691143E6E7002904BFBE
:1017500042637047012904BF82637047022904BFB6
:10176000C2637047032908BF0264704779B1012939
:1017700014D002291BD0032918BF7047C16921F476
:101780000061C161C16941EA0221C161704781699B
:1017900021F0080181618169114306E0816921F42A
:1017A00000618161816941EA022181617047C169FB
:1017B00021F00801C161C1691143E6E7624A10B531
:1017C000811A90427ED02FDC604AA0EB0201904249
:1017D00071D015DCB0F1804F59D0A0F58060B0F128
:1017E00080405ED0B0F5806F18BF10BD40F602009B
:1017F000FFF7FFFCBDE8104040F60200FFF7E8BC31
:10180000B1F5806F63D0B1F5006F6AD0B1F5406F6C
:1018100018BF10BD40F60600FFF7EBFCBDE8104016
:1018200040F60600FFF7D4BCB1F5923F63D013DC5D
:10183000B1F5806F7DD0B1F5644F1ED0B1F5684F22
:1018400018BF10BD40F60110FFF7D3FCBDE81040F3
:1018500040F60110FFF7BCBCB1F5943F55D0B1F58F
:10186000963F18BF10BD40F61210FFF7C2FCBDE84E
:10187000104040F61210FFF7ABBC4FF41060FFF7BA
:10188000B8FCBDE810404FF41060FFF7A1BC4FF466
:101890000060FFF7AEFCBDE810404FF40060FFF7BA
:1018A00097BC40F60100FFF7A4FCBDE8104040F6ED
:1018B0000100FFF78DBC40F60300FFF79AFC40F6ED
:1018C000030000E02BE0BDE81040FFF781BC40F6CC
:1018D0000400FFF78EFCBDE8104040F60400FFF75F
:1018E00077BC40F60500FFF784FCBDE8104040F6E9
:1018F0000500FFF76DBC4FF41160FFF77AFCBDE8FF
:1019000010404FF41160FFF763BC40F61110FFF771
:1019100070FCBDE8104040F61110FFF759BC40F6CE
:101920000700FFF766FCBDE8104040F60700FFF730
:101930004FBC40F60800FFF75CFCBDE8104040F6E5
:101940000800FFF745BC0000001C0040000C0040F0
:10195000016841F0010101607047C94301617047AE
:101960000069084018BF01207047000010B40A88C1
:101970008262294B294A984218BFB0F1804F10D09B
:10198000A0F1804CBCF5806C1CBFA0F1804CBCF574
:10199000006C06D0A0F1804CBCF5406C18BF9042A2
:1019A00013D1D0F800C02CF0700CC0F800C0D0F8F3
:1019B00000C04C884CEA040CC0F800C0D0F800C04D
:1019C0008C884CEA040CC0F800C0D1F808C0C0F8FC
:1019D0002CC0A0F1804CBCF5805C1CBFA0F1804CF9
:1019E000BCF5A05C11D0D0F800C02CF4407CC0F84D
:1019F00000C0D0F800C0CC884CEA040CC0F800C08D
:101A0000984212BF9042097B0163416941F0010194
:101A1000416110BC7047000000000140000401401B
:101A2000C2681143C16070470129416C0CBF41F489
:101A3000004121F400414164704700210180418050
:101A400081804FF6FF728260C18001737047000091
:101A500070B5054640F60240FFF7AAFB41F21300BD
:101A6000FFF7A6FB274C4FF4806208212046FEF7C3
:101A70009FFFE21408212046FEF79AFF231501225A
:101A800002212046FFF724F8E31401220221204618
:101A9000FFF71EF82315022200212046FFF742F827
:101AA000E314022200212046FFF73CF8164C2046A2
:101AB00000F0E2F82946204600F08AF8002120468E
:101AC00000F07FF90021204600F097F90021204620
:101AD00000F085F9204600F041F90421204600F08D
:101AE00078F9022211463420FFF714F940F205314B
:101AF000204600F044F92046BDE870404FF44171A3
:101B000000F03DB900080240004C004070B50546A9
:101B100041F20410FFF74CFB40F60140FFF748FB91
:101B2000294C402207212046FEF742FF8022072150
:101B30002046FEF73DFF4023012202212046FEF70A
:101B4000C7FF8023012202212046FEF7C1FF402368
:101B5000022200212046FEF7E5FF80230222002119
:101B60002046FEF7DFFF194C204600F085F8294695
:101B7000204600F02DF80021204600F022F9002137
:101B8000204600F03AF90021204600F028F92046CE
:101B900000F0E4F80821204600F029F9042120464D
:101BA00000F017F9022211462520FFF7B3F840F2A2
:101BB0000531204600F0E3F82046BDE870404FF4C0
:101BC000417100F0DCB80000000402400010014048
:101BD00070B50446234A0D460020A11A94421DD038
:101BE0000FDCA4F18041B1F5884108BF022012D07A
:101BF000B1F5806F1CBFB1F5006FB1F5406F0DD02E
:101C00000FE0B1F5806F09D0B1F5184F14BFB1F5F1
:101C10001C4F032005D1FFF751FA02E00220FFF725
:101C20004DFAE16811F4004F4FF6F0710DD04FEA14
:101C3000400000EB5500B0FBF5F000EA0101C0F3F5
:101C4000420041EA0000A06070BD00EB5500B0FB0F
:101C5000F5F000EA010100F00F0041EA0000A06089
:101C600070BD0000007800404068C0F30800704775
:101C7000C1F3080141607047374A10B5811A90429C
:101C800055D018DCA0F58840B0F1804031D0B0F5D7
:101C9000806F38D0B0F5006F3FD0B0F5406F18BFFF
:101CA00010BD40F61400FFF7A4FABDE8104040F65E
:101CB0001400FFF78DBAB1F5806F42D0B1F5184F1F
:101CC0000DD0B1F51C4F18BF10BD40F60510FFF741
:101CD00090FABDE8104040F60510FFF779BA40F6DB
:101CE0000410FFF786FABDE8104040F60410FFF735
:101CF0006FBA40F61100FFF77CFABDE8104040F6DD
:101D00001100FFF765BA40F61200FFF772FABDE85E
:101D1000104040F61200FFF75BBA40F61300FFF7E1
:101D200068FABDE8104040F61300FFF751BA40F6DC
:101D30001E00FFF75EFABDE8104040F61E00FFF7F8
:101D400047BA40F61F00FFF754FABDE8104040F6CE
:101D50001F00FFF73DBA000000780040C16841F461
:101D60000051C160704700EB9110006801F01F0145
:101D7000012202FA01F1084018BF0120704700EB70
:101D80009110026801F01F01012303FA01F11143D0
:101D900001607047C1F38912825800EB915001F045
:101DA0001F0C012303FA0CFC006802EA0C02C1F3C9
:101DB000044103FA01F1084216BF002A0020012065
:101DC0007047C26822F4C062C260C2681143C16039
:101DD0007047C26822F004021143C1607047026973
:101DE00022F4405202610269114301617047C268E6
:101DF00022F008021143C1607047C26822F4805289
:101E0000C260C2681143C16070470000000000005A
:101E10004F0000009E000000ED0000003C010000AB
:101E20008B010000D90100002802000077020000A9
:101E3000C60200001503000063030000B2030000A7
:101E4000000400004F0400009D040000EC040000AA
:101E50003A05000088050000D605000024060000B1
:101E600072060000C00600000E0700005B070000BD
:101E7000A9070000F60700004308000090080000D2
:101E8000DD0800002A09000077090000C3090000EE
:101E90000F0A00005C0A0000A80A0000F40A000013
:101EA0003F0B00008B0B0000D60B0000210C000044
:101EB0006C0C0000B70C0000010D00004C0D000080
:101EC000960D0000E00D0000290E0000730E0000CA
:101ED000BC0E0000050F00004E0F0000960F000022
:101EE000DF0F0000271000006E100000B610000089
:101EF000FD100000441100008B110000D111000002
:101F0000171200005D120000A2120000E81200008B
:101F10002D13000071130000B6130000F913000028
:101F20003D14000081140000C414000006150000D8
:101F3000491500008B150000CC1500000E1600009E
:101F40004F1600008F160000CF1600000F1700007C
:101F50004F1700008E170000CD1700000B1800006F
:101F60004918000087180000C4180000011900007B
:101F70003D19000079190000B5190000F0190000A2
:101F80002B1A0000661A00009F1A0000D91A0000E0
:101F9000121B00004B1B0000831B0000BB1B00003A
:101FA000F21B0000291C0000601C0000961C0000B1
:101FB000CB1C0000001D0000351D0000691D000045
:101FC0009D1D0000D01D0000031E0000351E0000F6
:101FD000671E0000981E0000C91E0000FA1E0000C7
:101FE000291F0000591F0000881F0000B61F0000B5
:101FF000E41F0000112000003E2000006A200000C5
:1020000096200000C1200000EC20000016210000F6
:10201000402100006921000092210000BA21000047
:10202000E1210000082200002F22000055220000BC
:102030007A2200009F220000C3220000E722000055
:102040000A2300002D2300004F230000702300000E
:1020500091230000B2230000D1230000F1230000EF
:102060000F2400002D2400004B24000068240000F1
:1020700084240000A0240000BB240000D52400001C
:10208000EF24000009250000222500003A25000069
:1020900052250000692500007F25000095250000DD
:1020A000AA250000BF250000D3250000E62500007A
:1020B000F92500000B2600001D2600002E2600003A
:1020C0003E2600004E2600005D2600006C26000023
:1020D0007A2600008726000094260000A026000033
:1020E000AB260000B6260000C0260000CA2600006D
:1020F000D3260000DB260000E3260000EA260000CD
:10210000F1260000F7260000FC2600000127000051
:1021100005270000082700000B2700000D270000FE
:102120000F27000010270000102700004C21000896
:10213000000000202400000058060008702100085C
:10214000240000208C040000680600080000000045
:10215000001C4E0E00000000950E0008050E000841
:10216000E50D000839020008000000000000000032
:04000005080001AD41
:00000001FF
